{
  "_format": "hh-sol-artifact-1",
  "contractName": "knft",
  "sourceName": "contracts/knft.sol",
  "abi": [
    {
      "inputs": [],
      "stateMutability": "nonpayable",
      "type": "constructor"
    },
    {
      "anonymous": false,
      "inputs": [
        {
          "indexed": true,
          "internalType": "address",
          "name": "owner",
          "type": "address"
        },
        {
          "indexed": true,
          "internalType": "address",
          "name": "approved",
          "type": "address"
        },
        {
          "indexed": true,
          "internalType": "uint256",
          "name": "tokenId",
          "type": "uint256"
        }
      ],
      "name": "Approval",
      "type": "event"
    },
    {
      "anonymous": false,
      "inputs": [
        {
          "indexed": true,
          "internalType": "address",
          "name": "owner",
          "type": "address"
        },
        {
          "indexed": true,
          "internalType": "address",
          "name": "operator",
          "type": "address"
        },
        {
          "indexed": false,
          "internalType": "bool",
          "name": "approved",
          "type": "bool"
        }
      ],
      "name": "ApprovalForAll",
      "type": "event"
    },
    {
      "anonymous": false,
      "inputs": [
        {
          "indexed": true,
          "internalType": "address",
          "name": "from",
          "type": "address"
        },
        {
          "indexed": true,
          "internalType": "address",
          "name": "to",
          "type": "address"
        },
        {
          "indexed": true,
          "internalType": "uint256",
          "name": "tokenId",
          "type": "uint256"
        }
      ],
      "name": "Transfer",
      "type": "event"
    },
    {
      "inputs": [
        {
          "internalType": "address",
          "name": "to",
          "type": "address"
        },
        {
          "internalType": "uint256",
          "name": "tokenId",
          "type": "uint256"
        }
      ],
      "name": "approve",
      "outputs": [],
      "stateMutability": "nonpayable",
      "type": "function"
    },
    {
      "inputs": [
        {
          "internalType": "address",
          "name": "owner",
          "type": "address"
        }
      ],
      "name": "balanceOf",
      "outputs": [
        {
          "internalType": "uint256",
          "name": "",
          "type": "uint256"
        }
      ],
      "stateMutability": "view",
      "type": "function"
    },
    {
      "inputs": [],
      "name": "collectionName",
      "outputs": [
        {
          "internalType": "string",
          "name": "",
          "type": "string"
        }
      ],
      "stateMutability": "view",
      "type": "function"
    },
    {
      "inputs": [],
      "name": "collectionSymbol",
      "outputs": [
        {
          "internalType": "string",
          "name": "",
          "type": "string"
        }
      ],
      "stateMutability": "view",
      "type": "function"
    },
    {
      "inputs": [],
      "name": "createknft",
      "outputs": [
        {
          "internalType": "uint256",
          "name": "",
          "type": "uint256"
        }
      ],
      "stateMutability": "nonpayable",
      "type": "function"
    },
    {
      "inputs": [
        {
          "internalType": "uint256",
          "name": "tokenId",
          "type": "uint256"
        }
      ],
      "name": "getApproved",
      "outputs": [
        {
          "internalType": "address",
          "name": "",
          "type": "address"
        }
      ],
      "stateMutability": "view",
      "type": "function"
    },
    {
      "inputs": [
        {
          "internalType": "address",
          "name": "owner",
          "type": "address"
        },
        {
          "internalType": "address",
          "name": "operator",
          "type": "address"
        }
      ],
      "name": "isApprovedForAll",
      "outputs": [
        {
          "internalType": "bool",
          "name": "",
          "type": "bool"
        }
      ],
      "stateMutability": "view",
      "type": "function"
    },
    {
      "inputs": [],
      "name": "name",
      "outputs": [
        {
          "internalType": "string",
          "name": "",
          "type": "string"
        }
      ],
      "stateMutability": "view",
      "type": "function"
    },
    {
      "inputs": [
        {
          "internalType": "uint256",
          "name": "tokenId",
          "type": "uint256"
        }
      ],
      "name": "ownerOf",
      "outputs": [
        {
          "internalType": "address",
          "name": "",
          "type": "address"
        }
      ],
      "stateMutability": "view",
      "type": "function"
    },
    {
      "inputs": [
        {
          "internalType": "address",
          "name": "from",
          "type": "address"
        },
        {
          "internalType": "address",
          "name": "to",
          "type": "address"
        },
        {
          "internalType": "uint256",
          "name": "tokenId",
          "type": "uint256"
        }
      ],
      "name": "safeTransferFrom",
      "outputs": [],
      "stateMutability": "nonpayable",
      "type": "function"
    },
    {
      "inputs": [
        {
          "internalType": "address",
          "name": "from",
          "type": "address"
        },
        {
          "internalType": "address",
          "name": "to",
          "type": "address"
        },
        {
          "internalType": "uint256",
          "name": "tokenId",
          "type": "uint256"
        },
        {
          "internalType": "bytes",
          "name": "_data",
          "type": "bytes"
        }
      ],
      "name": "safeTransferFrom",
      "outputs": [],
      "stateMutability": "nonpayable",
      "type": "function"
    },
    {
      "inputs": [
        {
          "internalType": "address",
          "name": "operator",
          "type": "address"
        },
        {
          "internalType": "bool",
          "name": "approved",
          "type": "bool"
        }
      ],
      "name": "setApprovalForAll",
      "outputs": [],
      "stateMutability": "nonpayable",
      "type": "function"
    },
    {
      "inputs": [
        {
          "internalType": "bytes4",
          "name": "interfaceId",
          "type": "bytes4"
        }
      ],
      "name": "supportsInterface",
      "outputs": [
        {
          "internalType": "bool",
          "name": "",
          "type": "bool"
        }
      ],
      "stateMutability": "view",
      "type": "function"
    },
    {
      "inputs": [],
      "name": "symbol",
      "outputs": [
        {
          "internalType": "string",
          "name": "",
          "type": "string"
        }
      ],
      "stateMutability": "view",
      "type": "function"
    },
    {
      "inputs": [
        {
          "internalType": "uint256",
          "name": "tokenId",
          "type": "uint256"
        }
      ],
      "name": "tokenURI",
      "outputs": [
        {
          "internalType": "string",
          "name": "",
          "type": "string"
        }
      ],
      "stateMutability": "view",
      "type": "function"
    },
    {
      "inputs": [
        {
          "internalType": "address",
          "name": "from",
          "type": "address"
        },
        {
          "internalType": "address",
          "name": "to",
          "type": "address"
        },
        {
          "internalType": "uint256",
          "name": "tokenId",
          "type": "uint256"
        }
      ],
      "name": "transferFrom",
      "outputs": [],
      "stateMutability": "nonpayable",
      "type": "function"
    }
  ],
  "bytecode": "0x60806040523480156200001157600080fd5b506040518060400160405280600481526020017f6b6e6674000000000000000000000000000000000000000000000000000000008152506040518060400160405280600481526020017f6b6e6674000000000000000000000000000000000000000000000000000000008152508160009080519060200190620000969291906200023c565b508060019080519060200190620000af9291906200023c565b505050620000c26200010860201b60201c565b60089080519060200190620000d99291906200023c565b50620000ea620001a260201b60201c565b60099080519060200190620001019291906200023c565b5062000351565b6060600080546200011990620002ec565b80601f01602080910402602001604051908101604052809291908181526020018280546200014790620002ec565b8015620001985780601f106200016c5761010080835404028352916020019162000198565b820191906000526020600020905b8154815290600101906020018083116200017a57829003601f168201915b5050505050905090565b606060018054620001b390620002ec565b80601f0160208091040260200160405190810160405280929190818152602001828054620001e190620002ec565b8015620002325780601f10620002065761010080835404028352916020019162000232565b820191906000526020600020905b8154815290600101906020018083116200021457829003601f168201915b5050505050905090565b8280546200024a90620002ec565b90600052602060002090601f0160209004810192826200026e5760008555620002ba565b82601f106200028957805160ff1916838001178555620002ba565b82800160010185558215620002ba579182015b82811115620002b95782518255916020019190600101906200029c565b5b509050620002c99190620002cd565b5090565b5b80821115620002e8576000816000905550600101620002ce565b5090565b600060028204905060018216806200030557607f821691505b602082108114156200031c576200031b62000322565b5b50919050565b7f4e487b7100000000000000000000000000000000000000000000000000000000600052602260045260246000fd5b6132f280620003616000396000f3fe608060405234801561001057600080fd5b50600436106101005760003560e01c80636352211e11610097578063b88d4fde11610066578063b88d4fde146102ad578063c87b56dd146102c9578063e5326ab1146102f9578063e985e9c51461031757610100565b80636352211e1461021357806370a082311461024357806395d89b4114610273578063a22cb4651461029157610100565b806320fcdcf0116100d357806320fcdcf01461019f57806323b872dd146101bd5780632f39352a146101d957806342842e0e146101f757610100565b806301ffc9a71461010557806306fdde0314610135578063081812fc14610153578063095ea7b314610183575b600080fd5b61011f600480360381019061011a9190611fa2565b610347565b60405161012c91906124ed565b60405180910390f35b61013d610429565b60405161014a9190612508565b60405180910390f35b61016d60048036038101906101689190611ff4565b6104bb565b60405161017a9190612486565b60405180910390f35b61019d60048036038101906101989190611f66565b610540565b005b6101a7610658565b6040516101b4919061272a565b60405180910390f35b6101d760048036038101906101d29190611e60565b610740565b005b6101e16107a0565b6040516101ee9190612508565b60405180910390f35b610211600480360381019061020c9190611e60565b61082e565b005b61022d60048036038101906102289190611ff4565b61084e565b60405161023a9190612486565b60405180910390f35b61025d60048036038101906102589190611dfb565b610900565b60405161026a919061272a565b60405180910390f35b61027b6109b8565b6040516102889190612508565b60405180910390f35b6102ab60048036038101906102a69190611f2a565b610a4a565b005b6102c760048036038101906102c29190611eaf565b610a60565b005b6102e360048036038101906102de9190611ff4565b610ac2565b6040516102f09190612508565b60405180910390f35b610301610c14565b60405161030e9190612508565b60405180910390f35b610331600480360381019061032c9190611e24565b610ca2565b60405161033e91906124ed565b60405180910390f35b60007f80ac58cd000000000000000000000000000000000000000000000000000000007bffffffffffffffffffffffffffffffffffffffffffffffffffffffff1916827bffffffffffffffffffffffffffffffffffffffffffffffffffffffff1916148061041257507f5b5e139f000000000000000000000000000000000000000000000000000000007bffffffffffffffffffffffffffffffffffffffffffffffffffffffff1916827bffffffffffffffffffffffffffffffffffffffffffffffffffffffff1916145b80610422575061042182610d36565b5b9050919050565b606060008054610438906129a9565b80601f0160208091040260200160405190810160405280929190818152602001828054610464906129a9565b80156104b15780601f10610486576101008083540402835291602001916104b1565b820191906000526020600020905b81548152906001019060200180831161049457829003601f168201915b5050505050905090565b60006104c682610da0565b610505576040517f08c379a00000000000000000000000000000000000000000000000000000000081526004016104fc9061268a565b60405180910390fd5b6004600083815260200190815260200160002060009054906101000a900473ffffffffffffffffffffffffffffffffffffffff169050919050565b600061054b8261084e565b90508073ffffffffffffffffffffffffffffffffffffffff168373ffffffffffffffffffffffffffffffffffffffff1614156105bc576040517f08c379a00000000000000000000000000000000000000000000000000000000081526004016105b3906126ea565b60405180910390fd5b8073ffffffffffffffffffffffffffffffffffffffff166105db610e0c565b73ffffffffffffffffffffffffffffffffffffffff16148061060a575061060981610604610e0c565b610ca2565b5b610649576040517f08c379a0000000000000000000000000000000000000000000000000000000008152600401610640906125ca565b60405180910390fd5b6106538383610e14565b505050565b6000806106656007610ecd565b9050600060405180610160016040528061013681526020016131476101369139905060008161069384610edb565b6040516020016106a49291906123f0565b604051602081830303815290604052905060006106f16106c385610edb565b6106cc84611088565b6040516020016106dd92919061241f565b604051602081830303815290604052611088565b90506000816040516020016107069190612464565b60405160208183030381529060405290506107213386611246565b61072b8582611264565b61073560076112d8565b849550505050505090565b61075161074b610e0c565b826112ee565b610790576040517f08c379a00000000000000000000000000000000000000000000000000000000081526004016107879061270a565b60405180910390fd5b61079b8383836113cc565b505050565b600980546107ad906129a9565b80601f01602080910402602001604051908101604052809291908181526020018280546107d9906129a9565b80156108265780601f106107fb57610100808354040283529160200191610826565b820191906000526020600020905b81548152906001019060200180831161080957829003601f168201915b505050505081565b61084983838360405180602001604052806000815250610a60565b505050565b6000806002600084815260200190815260200160002060009054906101000a900473ffffffffffffffffffffffffffffffffffffffff169050600073ffffffffffffffffffffffffffffffffffffffff168173ffffffffffffffffffffffffffffffffffffffff1614156108f7576040517f08c379a00000000000000000000000000000000000000000000000000000000081526004016108ee9061260a565b60405180910390fd5b80915050919050565b60008073ffffffffffffffffffffffffffffffffffffffff168273ffffffffffffffffffffffffffffffffffffffff161415610971576040517f08c379a0000000000000000000000000000000000000000000000000000000008152600401610968906125ea565b60405180910390fd5b600360008373ffffffffffffffffffffffffffffffffffffffff1673ffffffffffffffffffffffffffffffffffffffff168152602001908152602001600020549050919050565b6060600180546109c7906129a9565b80601f01602080910402602001604051908101604052809291908181526020018280546109f3906129a9565b8015610a405780601f10610a1557610100808354040283529160200191610a40565b820191906000526020600020905b815481529060010190602001808311610a2357829003601f168201915b5050505050905090565b610a5c610a55610e0c565b8383611628565b5050565b610a71610a6b610e0c565b836112ee565b610ab0576040517f08c379a0000000000000000000000000000000000000000000000000000000008152600401610aa79061270a565b60405180910390fd5b610abc84848484611795565b50505050565b6060610acd82610da0565b610b0c576040517f08c379a0000000000000000000000000000000000000000000000000000000008152600401610b039061266a565b60405180910390fd5b6000600660008481526020019081526020016000208054610b2c906129a9565b80601f0160208091040260200160405190810160405280929190818152602001828054610b58906129a9565b8015610ba55780601f10610b7a57610100808354040283529160200191610ba5565b820191906000526020600020905b815481529060010190602001808311610b8857829003601f168201915b505050505090506000610bb66117f1565b9050600081511415610bcc578192505050610c0f565b600082511115610c01578082604051602001610be99291906123cc565b60405160208183030381529060405292505050610c0f565b610c0a84611808565b925050505b919050565b60088054610c21906129a9565b80601f0160208091040260200160405190810160405280929190818152602001828054610c4d906129a9565b8015610c9a5780601f10610c6f57610100808354040283529160200191610c9a565b820191906000526020600020905b815481529060010190602001808311610c7d57829003601f168201915b505050505081565b6000600560008473ffffffffffffffffffffffffffffffffffffffff1673ffffffffffffffffffffffffffffffffffffffff16815260200190815260200160002060008373ffffffffffffffffffffffffffffffffffffffff1673ffffffffffffffffffffffffffffffffffffffff16815260200190815260200160002060009054906101000a900460ff16905092915050565b60007f01ffc9a7000000000000000000000000000000000000000000000000000000007bffffffffffffffffffffffffffffffffffffffffffffffffffffffff1916827bffffffffffffffffffffffffffffffffffffffffffffffffffffffff1916149050919050565b60008073ffffffffffffffffffffffffffffffffffffffff166002600084815260200190815260200160002060009054906101000a900473ffffffffffffffffffffffffffffffffffffffff1673ffffffffffffffffffffffffffffffffffffffff1614159050919050565b600033905090565b816004600083815260200190815260200160002060006101000a81548173ffffffffffffffffffffffffffffffffffffffff021916908373ffffffffffffffffffffffffffffffffffffffff160217905550808273ffffffffffffffffffffffffffffffffffffffff16610e878361084e565b73ffffffffffffffffffffffffffffffffffffffff167f8c5be1e5ebec7d5bd14f71427d1e84f3dd0314c0f7b2291e5b200ac8c7c3b92560405160405180910390a45050565b600081600001549050919050565b60606000821415610f23576040518060400160405280600181526020017f30000000000000000000000000000000000000000000000000000000000000008152509050611083565b600082905060005b60008214610f55578080610f3e90612a0c565b915050600a82610f4e9190612834565b9150610f2b565b60008167ffffffffffffffff811115610f97577f4e487b7100000000000000000000000000000000000000000000000000000000600052604160045260246000fd5b6040519080825280601f01601f191660200182016040528015610fc95781602001600182028036833780820191505090505b5090505b6000851461107c57600182610fe291906128bf565b9150600a85610ff19190612a55565b6030610ffd91906127de565b60f81b818381518110611039577f4e487b7100000000000000000000000000000000000000000000000000000000600052603260045260246000fd5b60200101907effffffffffffffffffffffffffffffffffffffffffffffffffffffffffffff1916908160001a905350600a856110759190612834565b9450610fcd565b8093505050505b919050565b606060008251905060008114156110b15760405180602001604052806000815250915050611241565b600060036002836110c291906127de565b6110cc9190612834565b60046110d89190612865565b905060006020826110e991906127de565b67ffffffffffffffff811115611128577f4e487b7100000000000000000000000000000000000000000000000000000000600052604160045260246000fd5b6040519080825280601f01601f19166020018201604052801561115a5781602001600182028036833780820191505090505b509050600060405180606001604052806040815260200161327d604091399050600181016020830160005b868110156111fe5760038101905062ffffff818a015116603f8160121c168401518060081b905060ff603f83600c1c1686015116810190508060081b905060ff603f8360061c1686015116810190508060081b905060ff603f831686015116810190508060e01b90508084526004840193505050611185565b506003860660018114611218576002811461122857611233565b613d3d60f01b6002830352611233565b603d60f81b60018303525b508484525050819450505050505b919050565b6112608282604051806020016040528060008152506118af565b5050565b61126d82610da0565b6112ac576040517f08c379a00000000000000000000000000000000000000000000000000000000081526004016112a39061262a565b60405180910390fd5b806006600084815260200190815260200160002090805190602001906112d3929190611c87565b505050565b6001816000016000828254019250508190555050565b60006112f982610da0565b611338576040517f08c379a000000000000000000000000000000000000000000000000000000000815260040161132f906125aa565b60405180910390fd5b60006113438361084e565b90508073ffffffffffffffffffffffffffffffffffffffff168473ffffffffffffffffffffffffffffffffffffffff1614806113b257508373ffffffffffffffffffffffffffffffffffffffff1661139a846104bb565b73ffffffffffffffffffffffffffffffffffffffff16145b806113c357506113c28185610ca2565b5b91505092915050565b8273ffffffffffffffffffffffffffffffffffffffff166113ec8261084e565b73ffffffffffffffffffffffffffffffffffffffff1614611442576040517f08c379a0000000000000000000000000000000000000000000000000000000008152600401611439906126aa565b60405180910390fd5b600073ffffffffffffffffffffffffffffffffffffffff168273ffffffffffffffffffffffffffffffffffffffff1614156114b2576040517f08c379a00000000000000000000000000000000000000000000000000000000081526004016114a99061256a565b60405180910390fd5b6114bd83838361190a565b6114c8600082610e14565b6001600360008573ffffffffffffffffffffffffffffffffffffffff1673ffffffffffffffffffffffffffffffffffffffff168152602001908152602001600020600082825461151891906128bf565b925050819055506001600360008473ffffffffffffffffffffffffffffffffffffffff1673ffffffffffffffffffffffffffffffffffffffff168152602001908152602001600020600082825461156f91906127de565b92505081905550816002600083815260200190815260200160002060006101000a81548173ffffffffffffffffffffffffffffffffffffffff021916908373ffffffffffffffffffffffffffffffffffffffff160217905550808273ffffffffffffffffffffffffffffffffffffffff168473ffffffffffffffffffffffffffffffffffffffff167fddf252ad1be2c89b69c2b068fc378daa952ba7f163c4a11628f55a4df523b3ef60405160405180910390a4505050565b8173ffffffffffffffffffffffffffffffffffffffff168373ffffffffffffffffffffffffffffffffffffffff161415611697576040517f08c379a000000000000000000000000000000000000000000000000000000000815260040161168e9061258a565b60405180910390fd5b80600560008573ffffffffffffffffffffffffffffffffffffffff1673ffffffffffffffffffffffffffffffffffffffff16815260200190815260200160002060008473ffffffffffffffffffffffffffffffffffffffff1673ffffffffffffffffffffffffffffffffffffffff16815260200190815260200160002060006101000a81548160ff0219169083151502179055508173ffffffffffffffffffffffffffffffffffffffff168373ffffffffffffffffffffffffffffffffffffffff167f17307eab39ab6107e8899845ad3d59bd9653f200f220920489ca2b5937696c318360405161178891906124ed565b60405180910390a3505050565b6117a08484846113cc565b6117ac8484848461190f565b6117eb576040517f08c379a00000000000000000000000000000000000000000000000000000000081526004016117e29061252a565b60405180910390fd5b50505050565b606060405180602001604052806000815250905090565b606061181382610da0565b611852576040517f08c379a0000000000000000000000000000000000000000000000000000000008152600401611849906126ca565b60405180910390fd5b600061185c6117f1565b9050600081511161187c57604051806020016040528060008152506118a7565b8061188684610edb565b6040516020016118979291906123cc565b6040516020818303038152906040525b915050919050565b6118b98383611aa6565b6118c6600084848461190f565b611905576040517f08c379a00000000000000000000000000000000000000000000000000000000081526004016118fc9061252a565b60405180910390fd5b505050565b505050565b60006119308473ffffffffffffffffffffffffffffffffffffffff16611c74565b15611a99578373ffffffffffffffffffffffffffffffffffffffff1663150b7a02611959610e0c565b8786866040518563ffffffff1660e01b815260040161197b94939291906124a1565b602060405180830381600087803b15801561199557600080fd5b505af19250505080156119c657506040513d601f19601f820116820180604052508101906119c39190611fcb565b60015b611a49573d80600081146119f6576040519150601f19603f3d011682016040523d82523d6000602084013e6119fb565b606091505b50600081511415611a41576040517f08c379a0000000000000000000000000000000000000000000000000000000008152600401611a389061252a565b60405180910390fd5b805181602001fd5b63150b7a0260e01b7bffffffffffffffffffffffffffffffffffffffffffffffffffffffff1916817bffffffffffffffffffffffffffffffffffffffffffffffffffffffff191614915050611a9e565b600190505b949350505050565b600073ffffffffffffffffffffffffffffffffffffffff168273ffffffffffffffffffffffffffffffffffffffff161415611b16576040517f08c379a0000000000000000000000000000000000000000000000000000000008152600401611b0d9061264a565b60405180910390fd5b611b1f81610da0565b15611b5f576040517f08c379a0000000000000000000000000000000000000000000000000000000008152600401611b569061254a565b60405180910390fd5b611b6b6000838361190a565b6001600360008473ffffffffffffffffffffffffffffffffffffffff1673ffffffffffffffffffffffffffffffffffffffff1681526020019081526020016000206000828254611bbb91906127de565b92505081905550816002600083815260200190815260200160002060006101000a81548173ffffffffffffffffffffffffffffffffffffffff021916908373ffffffffffffffffffffffffffffffffffffffff160217905550808273ffffffffffffffffffffffffffffffffffffffff16600073ffffffffffffffffffffffffffffffffffffffff167fddf252ad1be2c89b69c2b068fc378daa952ba7f163c4a11628f55a4df523b3ef60405160405180910390a45050565b600080823b905060008111915050919050565b828054611c93906129a9565b90600052602060002090601f016020900481019282611cb55760008555611cfc565b82601f10611cce57805160ff1916838001178555611cfc565b82800160010185558215611cfc579182015b82811115611cfb578251825591602001919060010190611ce0565b5b509050611d099190611d0d565b5090565b5b80821115611d26576000816000905550600101611d0e565b5090565b6000611d3d611d388461276a565b612745565b905082815260208101848484011115611d5557600080fd5b611d60848285612967565b509392505050565b600081359050611d77816130ea565b92915050565b600081359050611d8c81613101565b92915050565b600081359050611da181613118565b92915050565b600081519050611db681613118565b92915050565b600082601f830112611dcd57600080fd5b8135611ddd848260208601611d2a565b91505092915050565b600081359050611df58161312f565b92915050565b600060208284031215611e0d57600080fd5b6000611e1b84828501611d68565b91505092915050565b60008060408385031215611e3757600080fd5b6000611e4585828601611d68565b9250506020611e5685828601611d68565b9150509250929050565b600080600060608486031215611e7557600080fd5b6000611e8386828701611d68565b9350506020611e9486828701611d68565b9250506040611ea586828701611de6565b9150509250925092565b60008060008060808587031215611ec557600080fd5b6000611ed387828801611d68565b9450506020611ee487828801611d68565b9350506040611ef587828801611de6565b925050606085013567ffffffffffffffff811115611f1257600080fd5b611f1e87828801611dbc565b91505092959194509250565b60008060408385031215611f3d57600080fd5b6000611f4b85828601611d68565b9250506020611f5c85828601611d7d565b9150509250929050565b60008060408385031215611f7957600080fd5b6000611f8785828601611d68565b9250506020611f9885828601611de6565b9150509250929050565b600060208284031215611fb457600080fd5b6000611fc284828501611d92565b91505092915050565b600060208284031215611fdd57600080fd5b6000611feb84828501611da7565b91505092915050565b60006020828403121561200657600080fd5b600061201484828501611de6565b91505092915050565b612026816128f3565b82525050565b61203581612905565b82525050565b60006120468261279b565b61205081856127b1565b9350612060818560208601612976565b61206981612b42565b840191505092915050565b600061207f826127a6565b61208981856127c2565b9350612099818560208601612976565b6120a281612b42565b840191505092915050565b60006120b8826127a6565b6120c281856127d3565b93506120d2818560208601612976565b80840191505092915050565b60006120eb6032836127c2565b91506120f682612b53565b604082019050919050565b600061210e601c836127c2565b915061211982612ba2565b602082019050919050565b60006121316024836127c2565b915061213c82612bcb565b604082019050919050565b60006121546019836127c2565b915061215f82612c1a565b602082019050919050565b6000612177602c836127c2565b915061218282612c43565b604082019050919050565b600061219a600d836127d3565b91506121a582612c92565b600d82019050919050565b60006121bd6038836127c2565b91506121c882612cbb565b604082019050919050565b60006121e0602a836127c2565b91506121eb82612d0a565b604082019050919050565b60006122036029836127c2565b915061220e82612d59565b604082019050919050565b6000612226602e836127c2565b915061223182612da8565b604082019050919050565b60006122496002836127d3565b915061225482612df7565b600282019050919050565b600061226c6020836127c2565b915061227782612e20565b602082019050919050565b600061228f6031836127c2565b915061229a82612e49565b604082019050919050565b60006122b2602c836127c2565b91506122bd82612e98565b604082019050919050565b60006122d56029836127c2565b91506122e082612ee7565b604082019050919050565b60006122f8602f836127c2565b915061230382612f36565b604082019050919050565b600061231b600a836127d3565b915061232682612f85565b600a82019050919050565b600061233e6021836127c2565b915061234982612fae565b604082019050919050565b60006123616060836127d3565b915061236c82612ffd565b606082019050919050565b6000612384601d836127d3565b915061238f82613072565b601d82019050919050565b60006123a76031836127c2565b91506123b28261309b565b604082019050919050565b6123c68161295d565b82525050565b60006123d882856120ad565b91506123e482846120ad565b91508190509392505050565b60006123fc82856120ad565b915061240882846120ad565b91506124138261218d565b91508190509392505050565b600061242a8261230e565b915061243682856120ad565b915061244182612354565b915061244d82846120ad565b91506124588261223c565b91508190509392505050565b600061246f82612377565b915061247b82846120ad565b915081905092915050565b600060208201905061249b600083018461201d565b92915050565b60006080820190506124b6600083018761201d565b6124c3602083018661201d565b6124d060408301856123bd565b81810360608301526124e2818461203b565b905095945050505050565b6000602082019050612502600083018461202c565b92915050565b600060208201905081810360008301526125228184612074565b905092915050565b60006020820190508181036000830152612543816120de565b9050919050565b6000602082019050818103600083015261256381612101565b9050919050565b6000602082019050818103600083015261258381612124565b9050919050565b600060208201905081810360008301526125a381612147565b9050919050565b600060208201905081810360008301526125c38161216a565b9050919050565b600060208201905081810360008301526125e3816121b0565b9050919050565b60006020820190508181036000830152612603816121d3565b9050919050565b60006020820190508181036000830152612623816121f6565b9050919050565b6000602082019050818103600083015261264381612219565b9050919050565b600060208201905081810360008301526126638161225f565b9050919050565b6000602082019050818103600083015261268381612282565b9050919050565b600060208201905081810360008301526126a3816122a5565b9050919050565b600060208201905081810360008301526126c3816122c8565b9050919050565b600060208201905081810360008301526126e3816122eb565b9050919050565b6000602082019050818103600083015261270381612331565b9050919050565b600060208201905081810360008301526127238161239a565b9050919050565b600060208201905061273f60008301846123bd565b92915050565b600061274f612760565b905061275b82826129db565b919050565b6000604051905090565b600067ffffffffffffffff82111561278557612784612b13565b5b61278e82612b42565b9050602081019050919050565b600081519050919050565b600081519050919050565b600082825260208201905092915050565b600082825260208201905092915050565b600081905092915050565b60006127e98261295d565b91506127f48361295d565b9250827fffffffffffffffffffffffffffffffffffffffffffffffffffffffffffffffff0382111561282957612828612a86565b5b828201905092915050565b600061283f8261295d565b915061284a8361295d565b92508261285a57612859612ab5565b5b828204905092915050565b60006128708261295d565b915061287b8361295d565b9250817fffffffffffffffffffffffffffffffffffffffffffffffffffffffffffffffff04831182151516156128b4576128b3612a86565b5b828202905092915050565b60006128ca8261295d565b91506128d58361295d565b9250828210156128e8576128e7612a86565b5b828203905092915050565b60006128fe8261293d565b9050919050565b60008115159050919050565b60007fffffffff0000000000000000000000000000000000000000000000000000000082169050919050565b600073ffffffffffffffffffffffffffffffffffffffff82169050919050565b6000819050919050565b82818337600083830152505050565b60005b83811015612994578082015181840152602081019050612979565b838111156129a3576000848401525b50505050565b600060028204905060018216806129c157607f821691505b602082108114156129d5576129d4612ae4565b5b50919050565b6129e482612b42565b810181811067ffffffffffffffff82111715612a0357612a02612b13565b5b80604052505050565b6000612a178261295d565b91507fffffffffffffffffffffffffffffffffffffffffffffffffffffffffffffffff821415612a4a57612a49612a86565b5b600182019050919050565b6000612a608261295d565b9150612a6b8361295d565b925082612a7b57612a7a612ab5565b5b828206905092915050565b7f4e487b7100000000000000000000000000000000000000000000000000000000600052601160045260246000fd5b7f4e487b7100000000000000000000000000000000000000000000000000000000600052601260045260246000fd5b7f4e487b7100000000000000000000000000000000000000000000000000000000600052602260045260246000fd5b7f4e487b7100000000000000000000000000000000000000000000000000000000600052604160045260246000fd5b6000601f19601f8301169050919050565b7f4552433732313a207472616e7366657220746f206e6f6e20455243373231526560008201527f63656976657220696d706c656d656e7465720000000000000000000000000000602082015250565b7f4552433732313a20746f6b656e20616c7265616479206d696e74656400000000600082015250565b7f4552433732313a207472616e7366657220746f20746865207a65726f2061646460008201527f7265737300000000000000000000000000000000000000000000000000000000602082015250565b7f4552433732313a20617070726f766520746f2063616c6c657200000000000000600082015250565b7f4552433732313a206f70657261746f7220717565727920666f72206e6f6e657860008201527f697374656e7420746f6b656e0000000000000000000000000000000000000000602082015250565b7f3c2f746578743e3c2f7376673e00000000000000000000000000000000000000600082015250565b7f4552433732313a20617070726f76652063616c6c6572206973206e6f74206f7760008201527f6e6572206e6f7220617070726f76656420666f7220616c6c0000000000000000602082015250565b7f4552433732313a2062616c616e636520717565727920666f7220746865207a6560008201527f726f206164647265737300000000000000000000000000000000000000000000602082015250565b7f4552433732313a206f776e657220717565727920666f72206e6f6e657869737460008201527f656e7420746f6b656e0000000000000000000000000000000000000000000000602082015250565b7f45524337323155524953746f726167653a2055524920736574206f66206e6f6e60008201527f6578697374656e7420746f6b656e000000000000000000000000000000000000602082015250565b7f227d000000000000000000000000000000000000000000000000000000000000600082015250565b7f4552433732313a206d696e7420746f20746865207a65726f2061646472657373600082015250565b7f45524337323155524953746f726167653a2055524920717565727920666f722060008201527f6e6f6e6578697374656e7420746f6b656e000000000000000000000000000000602082015250565b7f4552433732313a20617070726f76656420717565727920666f72206e6f6e657860008201527f697374656e7420746f6b656e0000000000000000000000000000000000000000602082015250565b7f4552433732313a207472616e73666572206f6620746f6b656e2074686174206960008201527f73206e6f74206f776e0000000000000000000000000000000000000000000000602082015250565b7f4552433732314d657461646174613a2055524920717565727920666f72206e6f60008201527f6e6578697374656e7420746f6b656e0000000000000000000000000000000000602082015250565b7f7b226e616d65223a202200000000000000000000000000000000000000000000600082015250565b7f4552433732313a20617070726f76616c20746f2063757272656e74206f776e6560008201527f7200000000000000000000000000000000000000000000000000000000000000602082015250565b7f222c20226465736372697074696f6e223a20224120686967686c79206163636c60008201527f61696d656420636f6c6c656374696f6e2057617272696f7273222c2022696d6160208201527f6765223a2022646174613a696d6167652f7376672b786d6c3b6261736536342c604082015250565b7f646174613a6170706c69636174696f6e2f6a736f6e3b6261736536342c000000600082015250565b7f4552433732313a207472616e736665722063616c6c6572206973206e6f74206f60008201527f776e6572206e6f7220617070726f766564000000000000000000000000000000602082015250565b6130f3816128f3565b81146130fe57600080fd5b50565b61310a81612905565b811461311557600080fd5b50565b61312181612911565b811461312c57600080fd5b50565b6131388161295d565b811461314357600080fd5b5056fe3c7376672076696577426f783d2730203020333530203335302720786d6c6e733d27687474703a2f2f7777772e77332e6f72672f323030302f73766727203e3c7374796c653e2e62617365207b2066696c6c3a2077686974653b20666f6e742d66616d696c793a2073657269663b20666f6e742d73697a653a20323470783b207d3c2f7374796c653e3c636972636c652063783d27313735272063793d273137352720723d27313735272077696474683d273130302527206865696768743d2731303025272066696c6c3d27626c61636b273e3c2f636972636c653e3c7465787420783d273530252720793d273530252720636c6173733d27626173652720646f6d696e616e742d626173656c696e653d276d6964646c652720746578742d616e63686f723d276d6964646c65273e546f6b656e20234142434445464748494a4b4c4d4e4f505152535455565758595a6162636465666768696a6b6c6d6e6f707172737475767778797a303132333435363738392b2fa2646970667358221220e11ac14a7a46b54a2faa42a359d230cde93de2836804e0b919c7f13f9d6a819964736f6c63430008040033",
  "linkReferences": {},
  "deployedLinkReferences": {}
}